:020000040800F2
:10000000A83C002061020008EF4C00089B46000855
:10001000ED4C0008790F00082B5A00080000000082
:10002000000000000000000000000000A101000826
:10003000A920000800000000FD010008515300083D
:100040007B0200087B0200087B0200087B0200089C
:100050007B0200087B0200087B0200087B0200088C
:100060007B0200087B020008E92400087B020008EC
:100070007B0200087B0200087B0200087B0200086C
:100080007B0200087B0200087B020008890F000841
:100090007D0F00087B0200087B020008EF240008A7
:1000A0007B020008415400087B0200087B02000824
:1000B0007B0200087B0200087B0200087B0200082C
:1000C0007B0200087B0200087B0200087B0200081C
:1000D0007B020008FD5900087B0200087B02000833
:1000E0007B0200087B0200087B0200087B020008FC
:1000F0007B0200087B0200087B0200087B020008EC
:100100007B0200087B0200087B0200087B020008DB
:100110007B0200087B0200087B0200087B020008CB
:100120007B020008C91E0008D51E0008E11E000859
:100130007B0200087B0200087B020008A10F000878
:10014000950F00087B0200087B0200087B02000874
:100150007B0200087B0200087B020008095A0008A5
:100160007B0200087B0200087B0200087B0200087B
:100170007B0200087B0200087B02000800000000F0
:100180007B0200087B020008DFF810D000F0A2FB21
:100190000048004751660008AFF30080A83C0020EB
:1001A0002C4B19680868B0E8F04F80F30988BFF35A
:1001B0006F8F4FF0000080F311887047000000003F
:1001C00008480068006880F308884FF0000080F35A
:1001D000148862B661B6BFF34F8FBFF36F8F00DF35
:1001E00000BF00BF08ED00E0DFF80C00016841F43B
:1001F00070010160704700BF88ED00E0EFF30980F7
:10020000BFF36F8F134B1A681EF0100F08BF20ED5D
:10021000108A20E9F04F106009B44FF0500080F3CD
:100220001188BFF34F8FBFF36F8F07F005F94FF0C1
:10023000000080F3118809BC19680868B0E8F04F25
:100240001EF0100F08BFB0EC108A80F30988BFF3CE
:100250006F8F704738010020EFF305807047000072
:100260000648804706480047FEE7FEE7FEE7FEE750
:10027000FEE7FEE7FEE7FEE7FEE7FEE7ED530008D8
:10028000890100082DE9F05F0546002092469B4653
:1002900088460646814640241BE02846414647469C
:1002A000224600F0C2F953465A46C01A914110D373
:1002B00011461846224600F0A9F92D1A67EB0108ED
:1002C0004F4622460120002100F0A0F917EB00095B
:1002D0004E41201EA4F10104DFDC484631462A4687
:1002E0004346BDE8F09F40EA01039B0703D009E0C5
:1002F00008C9121F08C0042AFAD203E011F8013B12
:1003000000F8013B521EF9D27047D2B201E000F86A
:10031000012B491EFBD270470022F6E710B51346A9
:100320000A4604461946FFF7F0FF204610BD2DE9A6
:10033000FE4F804681EA0300C00F0C46009021F07A
:10034000004123F00045B8EB0200A94105D2404628
:10035000214690461C460B46024623F000401043BF
:1003600047D0270DC7F30A00C3F30A510290401A81
:10037000019040286BDAC3F3130040F4801B00980F
:10038000924620B10023D2EB030A63EB0B0B0198DA
:100390005946C0F14002504600F038F906460D4675
:1003A00050465946019A00F050F910EB080061419F
:1003B000002487EA115284EAE7731A4340D0009A76
:1003C00062B3019A012A4FEA075215DC001B61EB68
:1003D00002014FF0004202EA0752CDE90042001C40
:1003E00041F5801132462B4600F087F903B0BDE895
:1003F000F08F40462146F9E7001B61EB0201001C2B
:1004000041F5801300185B412018A2F5001747EB57
:10041000030140EAD570B6196D4111E06D084FEA4D
:10042000360645EAC0754FEA0752001B61EB020130
:10043000001C41F5801149084FEA30000019514174
:1004400032462B4603B0BDE8F04F00F047B90098A4
:10045000012240000023D0EB020263EBE07300981E
:1004600021464FEAE074B8EB000061EB0401E9E7D4
:1004700083F000435BE781F0004158E72DE9FE4F30
:1004800081EA030404F0004421F0004100944FF09D
:10049000000B23F0004350EA01045ED052EA03044B
:1004A0005BD0C3F30A54C1F30A552C44A4F2F334CD
:1004B0000194A0FB0254C1F3130141F48011C3F372
:1004C000130343F4801301FB024400FB034E840A30
:1004D000970A44EA815447EA8357A4FB07680295C8
:1004E0008D0A05FB07854FEA932C04FB0C54270566
:1004F000029D4FEA065847EA1637B5EB08056EEB42
:10050000070C870E920E47EA811742EA8312A7FB77
:100510000201B6EB0B0164EB00042B0D43EA0C3334
:100520005E1844EB1C50DA465146E7FB0201C5F366
:1005300013044FEA0B3343EA14534FEA0432019C8D
:1005400043EA0603A4F10C040294009CCDE900B434
:1005500000F0D3F803B0BDE8F08F00200146F9E7C2
:100560000EB5C10F80EAE0700844CA07002140F2CE
:1005700033438DE80E000A460B4600F0BEF803B088
:1005800000BD00F0004230F000400AD0C10D01F57E
:100590006071C0F3160042EA0151C20840071143DE
:1005A000704700200146704701F0004330B421F04D
:1005B000004150EA010206D00A0DA2F56072C1F3B3
:1005C0001301002A02DC30BC00207047440F44EACB
:1005D000C104C100E01830BC00EBC25000F047B8C5
:1005E00030B50B46014600202022012409E021FA03
:1005F00002F59D4205D303FA02F5491B04FA02F500
:100600002844151EA2F10102F1DC30BD202A04DBD2
:10061000203A00FA02F1002070479140C2F1200315
:1006200020FA03F3194390407047202A04DB203A54
:1006300021FA02F00021704721FA02F3D040C2F102
:1006400020029140084319467047202A06DBCB1749
:10065000203A41FA02F043EAE07306E041FA02F37D
:10066000D040C2F12002914008431946704700294A
:10067000A8BF7047401C490008BF20F00100704728
:1006800010B4B0FA80FC00FA0CF050EA010404BF88
:1006900010BC704749B1CCF1200421FA04F411FADE
:1006A0000CF118BF012121430843A3EB0C01CB1D22
:1006B0004FEA00614FEA102042BF002010BC704793
:1006C00000EBC35010440029A4BF10BC7047401C6D
:1006D000490008BF20F0010010BC704710B5141E7F
:1006E00073F1000408DA401C41F1000192185B41EB
:1006F0001A4301D120F0010010BD2DE9F04D9246C2
:100700009B4611B1B1FA81F202E0B0FA80F22032D8
:100710009046FFF77BFF04460F4640EA0A0041EA95
:100720000B0153465A46084313D0114653EA0100C1
:1007300019D0C8F140025046FFF777FF05460E4634
:10074000504659464246FFF761FF084305D0012055
:1007500004E020463946BDE8F08D0020054346EA16
:10076000E0762C4337430A986305E40AA0EB0800BF
:100770000022FD0A44EA47540A3002D5002001460F
:10078000E9E7010510196941DDE9084500196941EA
:10079000BDE8F04DA2E72DE9F04D81EA030404F035
:1007A000004B21F0004514464FF0000A23F00041B1
:1007B00050EA050220D054EA01021DD0C5F30A57C1
:1007C0000246C5F31303C1F31300C1F30A5640F404
:1007D000801543F48013A7EB0608101BD64608F2D9
:1007E000FD3873EB050002D308F1010801E092180F
:1007F0005B41B8F1000F03DA00200146BDE8F08D3F
:1008000000204FF48011064684460EE0171B73EB60
:10081000050705D3121B63EB050306434CEA010CE5
:1008200049084FEA300092185B4150EA0107EDD1C8
:1008300052EA030012D082EA040083EA0501084369
:1008400005D0101BAB4106D20122002306E0002296
:100850004FF0004302E06FF0010253101AEB060064
:100860004CEB085110EB0A0041EB0B01BDE8F04DD9
:10087000FFF734BFC1F30A52C1F3130140F2FF3353
:1008800041F480119A4202DA00200146704740F29A
:1008900033439A42A2F2334202DC5242FFF7C5BE12
:1008A000FFF7B4BE30B5041E71F1000404DB4FF055
:1008B0000044404264EB0101141E73F1000405DBA7
:1008C0001C464FF00043524263EB0403994208BFB9
:1008D000904230BD064C074D06E0E06840F0010351
:1008E00094E8070098471034AC42F6D3FFF750FC69
:1008F000448300086483000870B58C1810F8015B0D
:1009000015F0070301D110F8013B2A1106D110F8A8
:10091000012B03E010F8016B01F8016B5B1EF9D1AC
:100920002B0705D40023521E0DD401F8013BFAE732
:1009300010F8013BCB1A921C03E013F8015B01F89D
:10094000015B521EF9D5A142D8D3002070BD000032
:100950002DE9F04F0AACC1EB011C94E8604E642411
:10096000B0FBF4F41D4901F80C400A24B0FBF4F785
:10097000B7FBF4F804FB1877614401F8017FB0FB82
:10098000F4F704FB17004870887862F3020063F301
:10099000C50088704A88099860F389124A80CA782D
:1009A00065F38502CA70B1F8032066F38E12A1F8D0
:1009B00003208A8869F3CF128A80CA886AF3090201
:1009C000CA80B1F807006BF38C00A1F80700088912
:1009D0006EF34F100881BDE8F08F0000181600205C
:1009E0002DE9F04F92466422B0FBF2F2C1EB011CFC
:1009F000DDE91154DDE90B962749DDF828E0DDF843
:100A00003CB001F80C200A22B0FBF2F7B7FBF2F879
:100A100002FB1877614401F8017FB0FBF2F702FB9B
:100A20001700487088786AF3020063F3C500887085
:100A30004A88099860F389124A80CA786EF3850261
:100A4000CA70B1F8032069F38E12A1F803208888D8
:100A500066F3CF108880CA880D9860F30902CA80B7
:100A6000B1F807200E9860F38C02A1F807200A89DC
:100A70006BF34F120A814A89109860F309024A8188
:100A8000B1F80B0065F38C00A1F80B00888964F3C2
:100A90004F108881BDE8F08F821500202DE9F04FBE
:100AA0009B46129BDDE90DE4DDE90A95DFF890C075
:100AB000C0EB00101F78DDF830A0DDF84080099E03
:100AC0000CF8007060445F7800F8017F9B784370F9
:100AD000837861F3020362F3C503837042886BF38A
:100AE00089124280C17866F38501C170B0F8032095
:100AF00069F38E12A0F80320818865F3CF118180FD
:100B0000C2886AF30902C280B0F807206EF38C0233
:100B1000A0F80720018964F34F11018142890F99E0
:100B200061F309024281B0F80B1068F38C01A0F860
:100B30000B108289119961F34F128281BDE8F08F09
:100B40001816002030B50C4605000CD0022C0AD92E
:100B50000548A11E0288284601F008FE291901F85F
:100B6000020D000A487030BD7000002030B50C4600
:100B7000050008D0022C06D9FF22611E01F00CFEF0
:100B8000291901F8010C30BD01221021014802F0A1
:100B9000B5BC00000000024000221021014802F014
:100BA000ADBC000000000240704700000122114669
:100BB000014802F0A3BC0000000402400022012111
:100BC000014802F09BBC000000040240704730B5B1
:100BD00004464FF47A7502E0284600F004F8641EDB
:100BE000A4B2F9D230BD70B54FF0E024002265699F
:100BF000A8214843A169A3698B42FCD002D2A1EB92
:100C0000030102E0A5EB030631440A44194682427F
:100C1000F1D370BD10B5FFF7C7FFFFF7D7FF05F0A1
:100C2000ADFB044605F032FC204310BD2DE9FC412C
:100C30000746002016460D4600900190FFF7ACFFD6
:100C4000922000F0BDF806226946122000F09AF8C2
:100C5000FFF79AFF9DF801009DF80010000200B216
:100C6000084300EE100A464CB8EEC00AD4ED000A64
:100C700020EE200A85ED000A9DF803009DF8021081
:100C8000000200B2084300EE100AD4ED000AB8EEEC
:100C9000C00A20EE200A85ED010A9DF805009DF8A6
:100CA0000410000200B2084300EE100AB8EEC00AB9
:100CB00020EE200A85ED020AFFF780FF0822694630
:100CC000002000F05FF8FFF771FF9DF800000F288B
:100CD00030D19DF803009DF80210000200B20843D5
:100CE00000EE100AD4ED010AB8EEC00A20EE200A88
:100CF00087ED000A9DF805009DF80410000200B27F
:100D0000084300EE100AD4ED010AB8EEC00A20EE46
:100D1000200A87ED010A9DF807009DF806100002E1
:100D200000B2084300EE100AB8EEC00A20EE200A16
:100D300087ED020AFFF730FFA22000F041F80222FF
:100D40006946222000F01EF8FFF71EFF9DF8000004
:100D50009DF80110C00040EA5110B0F5806F01DB32
:100D6000A0F5006000EE100AB4EE001AF8EEC00A1A
:100D7000B3EE070A00EE810A86ED000ABDE8FC81A9
:100D8000B401002070B514460D4640F0800000F01C
:100D900017F806E0552000F013F8641E05F8010B63
:100DA000E4B2002CF6D170BD10B50C4640F08000C6
:100DB00000F006F8552000F003F8207010BD000088
:100DC00001B582B04FF47A700090012301AA02A904
:100DD000024802F097FF9DF804000EBDEC060020CB
:100DE00010B50C46FFF7ECFF2046BDE81040FFF7BA
:100DF000E7BF00002DE9F047574F00258AB0387A49
:100E0000FF2800D13D72387A544E401C524C387243
:100E1000A5213170203451212180217871706178B1
:100E2000B170F07005213046FFF7A0FE40F20130AE
:100E30002080207870716078B07140F203102080BB
:100E40002078F07160783072B7F844002080217803
:100E500071726178B17240F4807020802078F072F5
:100E60006078307340F2A2390121CDE906190224DD
:100E7000CDE902543AA2C826CDE908624FF4967A29
:100E8000CDE9049A0827CDE9007500220923104610
:100E9000FFF704FE40F2DE38CDE90658CDE90254F2
:100EA00030A1CDE90861CDE9048ACDE900750121C1
:100EB000092300220846FFF7F1FD40F2F231CDE9A7
:100EC000065129A040F21316CDE90860CDE900755E
:100ED000CDE90254CDE90486092300220121022034
:100EE000FFF7DCFD40F28E31CDE906511FA0CDE9C0
:100EF0000860CDE90075CDE90254CDE904960923D7
:100F0000002201210320FFF7C9FD19490F22A1F595
:100F1000E660FFF7E8F916490F220F31A1F5E66008
:100F2000FFF7E1F912490F221E31A1F5E660FFF744
:100F3000DAF90F490F222D31A1F5E660FFF7D3F959
:100F40005A210648FFF7FEFD0AB05A22BDE8F047D5
:100F50000249084803F081BB74000020DB0E00202A
:100F6000626C6600626C64006272660062726400A9
:100F70001816002084080020FEE70000014801F058
:100F800094BD00009C060020014801F08EBD0000C9
:100F90009C060020014801F088BD0000C406002026
:100FA000014801F082BD0000C406002070B506466D
:100FB000006814490024012594B088420CD10A9499
:100FC0000B940C940D940E940F94CDE910450AA93E
:100FD0000D48129501F06EFC0C49306888420ED124
:100FE0000E20CDE9044008950194029409900094E4
:100FF000694603940648CDE9064501F05BFC14B050
:1010000070BD0000006400409C06002000680040A5
:10101000C406002010B5044601F0D0FF022120468E
:1010200001F0C8FB2046BDE81040FFF7BFBF00003D
:1010300000B58BB001220390002005900690099224
:101040000820079008788DF8000048788DF8010096
:1010500088788DF80200C8788DF8030008798DF83B
:10106000040048798DF8050088798DF80600C87964
:101070008DF8070009AB6A4603A9024801F0ACFBF2
:101080000BB000BDC40600202DE9F047544F814647
:101090000026387992468846FF2800D13E7138797B
:1010A000504D401C4E4C3871A521297020343321FD
:1010B0002180217869706178A970E870052128463F
:1010C000FFF754FD40F2013020802078687160788D
:1010D000A8714FF4887020802078E87160782872B9
:1010E000B7F844002080217869726178A97240F4D1
:1010F000807020802078E8726078287305F5A660FB
:1011000004210170012141708670B0F8031021F4B0
:10111000707101F5C071A0F80310C1786AF3020183
:1011200041F03801C17030490A7B022A04D00379AA
:1011300023F03C031C3306E08B7B002B037923F068
:101140003C032BD01033037130F8043F142464F3B4
:101150008E1320F8013B0624038864F3CF13038029
:1011600043886FF309039B1C4380B0F8034069F385
:101170008C04A0F80340848868F34F1484801948D5
:10118000174C0D306434A0F11005022A08D00F224C
:1011900000F22351FFF7A7F8206C0AE00C33D2E7E6
:1011A000897B4FF00F020029104914D0FFF79BF8FC
:1011B000606C016845F81F1F8188A9808079A8713B
:1011C0003C210848FFF7BEFCBDE8F0473C2205493A
:1011D000074803F042BAFFF786F8E06BE9E7000042
:1011E00074000020BB10002024090020EB15002013
:1011F0008408002070B514460D4606464FF48873E7
:1012000040F201323321334804F046FA324B0D20CC
:1012100018700820587006209870D87864F302007F
:1012200040F03800D870B3F8030020F47070C0307C
:10123000A3F803002948C47A187920F03C000CB1C7
:101240000C3000E01C30187133F8040F142161F3E6
:101250008E1023F8010B052118880F2261F3CF109F
:10126000188058881C496FF30900801C5880B3F817
:10127000030066F38C00A3F80300988865F34F1011
:101280009880A1F2D330FFF72EF812491448533951
:10129000052C0ED2DFE804F00305181A1C00406983
:1012A00000E08069026841F86F2F42684A60007A66
:1012B00008723C210748FFF745FCBDE870403C221E
:1012C0000449084803F0C9B9C069EBE7006AE9E7D7
:1012D000406AE7E70B120020EB15002024090020EC
:1012E000D8000020840800202DE9F047424F064630
:1012F0009146787B8846FF2801D100207873C0B2E0
:101300003E4D401C3C4C7873A5212970203433217C
:101310002180217869706178A970E87005212846DC
:10132000FFF724FC40F2013020802078687160785B
:10133000A8714FF4887020802078E8716078287256
:10134000B7F844002080217869726178A97240F46E
:10135000807020802078E8726078287305F59861A5
:10136000062001F8010B012208704A704A881423F4
:1013700022F4707202F500724A808A7869F30202E0
:1013800042F038028A70CA7822F03C022032CA70D9
:10139000B1F8032063F38E12A1F803208A8860F36A
:1013A000CF128A80C8886FF30900801CC880B1F80A
:1013B000070066F38C00A1F807000A8968F34F1252
:1013C0000A8105F598610F22A1F2B340FEF78BFF69
:1013D00004F144000D22816805F11C00FEF783FF33
:1013E0003C212846FFF7AEFB2946BDE8F0473C22EA
:1013F000034803F032B90000740000202B110020D4
:10140000840800202DE9F047444F06469146387B7A
:101410008846FF2801D100203873C0B2404D401CDF
:101420003E4C3873A5212970203433212180217846
:1014300069706178A970E87005212846FFF796FB6E
:1014400040F201302080207868716078A8714FF4F4
:10145000887020802078E87160782872B7F844009E
:101460002080217869726178A97240F480702080B0
:101470002078E8726078287305F5B461042001F8DB
:10148000010B06220A70092048704888142320F4B2
:10149000707000F500704880887869F3020040F0B1
:1014A00038008870C87820F03C001430C870B1F85B
:1014B000030063F38E10A1F80300888862F3CF1055
:1014C0008880C8886FF30900801CC880B1F80700C5
:1014D00066F38C00A1F807000A8968F34F120A81AD
:1014E00005F5B4610F22A1F29350FEF7FCFE04F162
:1014F00044000169A5F113000A6840F82F2F4A68DB
:101500004260098901813C212846FFF71BFB2946DF
:10151000BDE8F0473C22034803F09FB87400002068
:101520004B100020840800202DE9F047424F06466A
:101530009146B87B8846FF2801D10020B873C0B21D
:101540003E4D401C3C4CB873A521297020343321FA
:101550002180217869706178A970E870052128469A
:10156000FFF704FB40F2013020802078687160783A
:10157000A8714FF4887020802078E8716078287214
:10158000B7F844002080217869726178A97240F42C
:10159000807020802078E8726078287305F54071AB
:1015A000072001F8010B09200870487048881422B0
:1015B00020F4707000F500704880887869F30200AC
:1015C00040F038008870C87820F03C002030C870A7
:1015D000B1F8030062F38E10A1F803008888062298
:1015E00062F3CF108880C8886FF30900801CC88020
:1015F000B1F8070066F38C00A1F807000A8968F3C8
:101600004F120A8105F540710F22A1F2F320FEF777
:101610006AFE04F144000D22C16805F11C00FEF7CA
:1016200062FE3C212846FFF78DFA2946BDE8F047C7
:101630003C22034803F011B874000020EB12002094
:10164000840800202DE9F047564F80469146F878EF
:101650000E46FF2801D10020F870C0B2524D401C48
:10166000504CF870A5212970203433212180217835
:1016700069706178A970E87005212846FFF776FA4D
:1016800040F201302080207868716078A8714FF4B2
:10169000887020802078E87160782872B7F844005C
:1016A0002080217869726178A97240F4807020806E
:1016B0002078E8726078287305F52470092101709C
:1016C000012141708170C17869F3020141F0380154
:1016D000C170B0F8031021F4707101F5A071A0F889
:1016E000031032490279897A22F03C0209B10C32A6
:1016F00000E01C32027130F8042F142363F38E12C1
:1017000020F8012B05230288264C63F3CF120280B8
:10171000428864346FF30902921C4280B0F80330AF
:1017200068F38C03A0F80330828866F34F1282803E
:101730001D480D30A0F1300506291AD2DFE801F06E
:1017400003091920262C0F221949FEF7CCFDA06AA7
:1017500004E00F221649FEF7C6FDE06A016845F86D
:101760003F1F416869608068A8603C210E48FFF710
:10177000E9F9BDE8F0473C220B490E4802F06DBF85
:101780000F220B49FEF7AFFD206BE7E70F22084958
:10179000FEF7A9FD606BE1E70F220549FEF7A3FD07
:1017A000A06BDBE7740000205B13002024090020FD
:1017B000EB150020840800202DE9F047454F064630
:1017C0009146F87A8846FF2801D10020F872C0B20D
:1017D000414D401C3F4CF872A52129702034332123
:1017E0002180217869706178A970E8700521284608
:1017F000FFF7BCF940F201302080207868716078F2
:10180000A8714FF4887020802078E8716078287281
:10181000B7F844002080217869726178A97240F499
:10182000807020802078E8726078287305F5C261A6
:10183000062001F8010B0220087008204870488833
:10184000142220F4707000F500704880887869F3E5
:10185000020040F038008870C87820F03C0010305A
:10186000C870B1F8030062F38E10A1F803008888F5
:10187000052262F3CF108880C8886FF30900801CAE
:10188000C880B1F8070066F38C00A1F807000A8948
:1018900068F34F120A8105F5C2610F22A1F20360BD
:1018A000FEF721FD04F144000168A5F123000A6858
:1018B00040F83F2F8A888280897981713C212846AF
:1018C000FFF740F92946BDE8F0473C22034802F003
:1018D000C4BE000074000020DB0F0020840800203C
:1018E000024803490078486470470000D71400207C
:1018F0007400002070B50C46054660A100F0FEF8AB
:1019000018B1204604F0CCFEB0E05DA1284600F0FE
:10191000F5F818B1204604F0F9FEA7E059A12846D1
:1019200000F0ECF80028EFD157A1284600F0E6F8C7
:101930000028E9D155A1284600F0E0F80028E3D1BD
:1019400053A1284600F0DAF80028DDD151A128463D
:1019500000F0D4F80028D7D14FA1284600F0CEF8E7
:101960000028D1D14DA1284600F0C8F800287DD12B
:101970004BA1284600F0C2F8002877D149A128469B
:1019800000F0BCF8002871D147A1284600F0B6F855
:1019900000286BD145A1284600F0B0F8002865D199
:1019A00043A1284600F0AAF800285FD141A12846AB
:1019B00000F0A4F8002859D13FA1284600F09EF875
:1019C000002853D13DA1284600F098F800284DD1B9
:1019D0003BA1284600F092F8002847D139A12846BB
:1019E00000F08CF8002841D137A1284600F086F895
:1019F00000283BD135A1284600F080F8B0BB34A1C7
:101A0000284600F07BF888BB32A1284600F076F823
:101A100060BB31A1284600F071F838BB2FA12846E1
:101A200000F06CF810BB2EA1284600F067F8E8B96A
:101A30002CA1284600F062F8C0B92BA1284600F07E
:101A40005DF898B929A1284600F058F870B928A186
:101A5000284600F053F848B926A1284600F04EF871
:101A600020B925A1284600F049F808B1002070BD32
:101A70002146284604F078FDF8E700002A310000EE
:101A80002A3200002A3300002A3400002A350000E0
:101A90002A3600002A3700002A3800002A390000C0
:101AA00023310000233200002333000023340000E0
:101AB0002335000023360000403100004032000092
:101AC0004033000040340000403500004036000044
:101AD0004037000040380000403900002431000049
:101AE0002432000024330000243400002436000097
:101AF00024370000243800002439000030B50C469B
:101B0000054603F009FC0346204603F005FC83422A
:101B10000AD1002004E0295C225C914204D1401CDF
:101B20009842F8DB012030BD002030BD0022835CEC
:101B300023B18B54521C642AF9DB00E08B54012042
:101B4000704700002DE9F047924D81460024A879A6
:101B50008AB0FF2800D1AC71A8798F4F401C8D4E00
:101B6000A871A521397020366F21318031787970C4
:101B70007178B970F87005213846FEF7F7FF40F22A
:101B800001303080307878717078B8714FF482709D
:101B900030803078F87170783872B5F84400308051
:101BA000317879727178B97240F480703080307811
:101BB000F8727078387379484FF0030A4FF4077859
:101BC000417B1E204701022611B101290AD01AE0EB
:101BD000CDE9070403A90994029481E8D001CDE975
:101BE000004A08E0CDE9070403A90994029481E8BA
:101BF000D00100940194E88A0223401C80B24A4636
:101C00000021FEF7EDFE012207A84FF49679029419
:101C100080E8840203A8002380E8D001CDE9004ACF
:101C2000E88A5746801C80B21146FEF7D9FE4FF471
:101C3000E6704FF48761CDE90604CDE908104FF452
:101C4000527002940590CDE90346CDE90046E88A3A
:101C50000023C01C80B201220221FEF7C1FE4FF416
:101C6000D27040F21A41CDE90604CDE9081040F2E5
:101C7000663002940590CDE90346CDE90047E88A35
:101C80000023001D80B201220321FEF7A9FE4FF4BC
:101C9000BE704FF47F71CDE90604CDE908104FF412
:101CA0006170CDE904600420CDE900400294039402
:101CB000E88A0023401D80B201220421FEF790FE35
:101CC00006A94FF4AA7040F2DE3881E811010990AC
:101CD00003A940F2A237029481E8D0000520CDE9A3
:101CE0000040E88A0023801D80B201220521FEF712
:101CF00077FE06A9484681E8110103A9CDF8249092
:101D0000029481E8D0000620CDE90040E88A002353
:101D1000C01D80B201220621FEF762FE20490F227B
:101D2000A1F21A60FEF7DFFA1D490F220F31A1F26E
:101D30001A60FEF7D8FA1A490F221E31A1F21A6072
:101D4000FEF7D1FA16490F222D31A1F21A60FEF7E3
:101D5000CAFA13490F223C31A1F21A60FEF7C3FA06
:101D60000F490F224B31A1F21A60FEF7BCFA0C4961
:101D70000F225A31A1F21A60FEF7B5FA782106480F
:101D8000FEF7E0FE0AB07822BDE8F04702490548B8
:101D900002F063BC740000205B0F002024090020C7
:101DA00082150020840800202DE9F043424E814630
:101DB0000027F0798BB0FF2800D1F771F0793F4D03
:101DC000401C3D4CF071A521297020346F212180E9
:101DD000217869706178A970E87005212846FEF7BE
:101DE000C5FE40F201302080207868716078A871CB
:101DF0004FF4827020802078E87160782872B6F8FD
:101E000044002080217869726178A97240F4807062
:101E100020802078E87260782873322209924FF48B
:101E20002F700224CDE904404FF096084FF4E1737F
:101E300001210297CDF818800397CDE907130825F3
:101E4000CDE90045308B0023401C80B24A4619463C
:101E5000FEF7C6FD3C21099140F2BE52CDF8188034
:101E6000CDE9077240F2C440CDE9044002970397E0
:101E7000CDE90045308B0023801C80B24A46012109
:101E8000FEF7AEFD0E490F22A1F59D70FEF72BFA6D
:101E90000B490F220F31A1F59D70FEF724FA78212E
:101EA0000648FEF74FFE0BB07822BDE8F043034929
:101EB000044802F0D2BB0000740000203B14002054
:101EC0008215002084080020014801F0BDB8000000
:101ED000C4080020014801F0B7B800004407002002
:101EE000014801F0B1B80000A407002001681823E0
:101EF000CAB2103AB2FBF3F2054B6FF30901032AA1
:101F00009B5CC36500D9091D8165084670470000C8
:101F1000247F000810B5014600208B698A6A4FF0C3
:101F2000C07453B1B3F5005F15D072B1012A0CD063
:101F3000022A0AD0032A09D104E01AB1012A06D0E4
:101F4000022A03D1C96AC90100D5012010BDC96A9E
:101F5000A142FAD010BD002AF7D0012AF2D0022AFD
:101F6000F3D0032AF3D010BD30B50468256825F4FA
:101F700080252560046863608368402B036803D074
:101F800099600068C26030BD9A600068C16030BD71
:101F90002DE9F04781460027012603F0BDF9051E13
:101FA00034D00024DFF868802DE0621C21464846CA
:101FB00003F0BAF917A1FFF7A1FD88B1224639460F
:101FC000484603F0B1F903F00DF910EE100AFEF7E0
:101FD000D8FA08EBC602671CC2E90001761C11E0C2
:101FE000281B01280ED12A463946484603F09CF9A1
:101FF00003F0F8F810EE100AFEF7C3FA08EBC60279
:10200000C2E90001641CAC42CFDB3046BDE8F0877A
:10201000980A00202000000070B52149214B282893
:102020000A780BD012B19854521C0A7029280BD18F
:102030000024D0B225461C540C700BE0002AF2D1CB
:10204000282018700120087070BD58194078585524
:102050006D1CEDB2134803F05FF9401EA842F4DC9A
:10206000104803F059F918440E4A00F8024C503A4F
:10207000A2F114010B4802F0B1FE0A485038FFF7F4
:1020800087FF014607486438FFF734FC0549002004
:1020900050390C54401CC0B26428FAD370BD000003
:1020A00028000020CC090020704700002DE9F74FE0
:1020B000FF4E80460F46F07BFF2801D10020F073D1
:1020C000C0B2FC4D401CFA4CF073A521297020349D
:1020D00051212180217869706178A970E87005210B
:1020E0002846FEF743FD40F20130208020786871D9
:1020F0006078A87140F2031020802078E871607841
:102100002872B6F844002080217869726178A9723B
:1021100040F4807020802078E87260782873B58B56
:102120004FF06409B5FBF9F0E24C0A26803448F21E
:102130003F0A2070B5FBF6F0B0FBF6F106FB11008C
:102140006070B5FBF6F006FB1050A070E07840F22E
:102150005B3167F3020020F038000830E070B4F81B
:10216000030020F4707000F58070A4F8030020795B
:1021700020F03C0018302071A08800EA0A00A080FE
:10218000607900F07F00A4F80500B4F807006FF351
:102190000900401CA4F80700208961F38C0020810D
:1021A000B4F809004FF43E7161F34F10A4F8090030
:1021B000B4F80B0040F225416FF30900A4F80B00BE
:1021C000A0890F2261F38C00A081B4F80D004FF4B8
:1021D000437161F34F10A4F80D002146A1F1730083
:1021E000FEF781F8681CB0FBF9F1E173B0FBF6F182
:1021F000B1FBF6F206FB12112174B0FBF6F106FBFF
:1022000011006074A07CB8F11E0F67F3020020F08B
:102210003800A074608A20F4707000F5A0706082AD
:10222000E07C20F03C0001DD001D00E01030E07497
:1022300034F8130F4FF4577100EA0A0024F8010B29
:10224000207800F07F00208060886FF30900113053
:102250006080B4F8030061F38C00A4F80300A28846
:1022600040F2023060F34F12A280E28801EB480195
:102270006FF30902E280B4F8072061F38C02A4F83E
:10228000072021890F2260F34F11218189498F3165
:10229000A1F17300FEF727F8A81CB0FBF9F1A172B9
:1022A000B0FBF6F1B1FBF6F206FB1211E172B0FBE6
:1022B000F6F106FB11002073607B4FF4C86867F3EA
:1022C000020020F0380010306073B4F80D0040F2C6
:1022D000253B20F4707000F58070A4F80D00A07B01
:1022E0000F2220F03C00001DA073E08900EA0A00E4
:1022F000E081E07B00F07F00A4F80F00B4F811004B
:102300006FF309000930A4F81100618A68F38C01A9
:102310006182B4F813106BF34F11A4F81310B4F8E2
:1023200015004EF203016FF309002830A4F81500E0
:10233000E08A0840E082E07D5E4900F01F00A4F8DA
:1023400017009E31A1F17300FDF7CDFFE81CB0FB33
:10235000F9F16176B0FBF6F1B1FBF6F206FB121172
:10236000A176B0FBF6F106FB1100E076207F0F228C
:1023700067F3020020F038002077A08B20F4707003
:1023800000F5A070A083607F20F03C00001D607706
:10239000B4F81D0000EA0A00A4F81D00A07F00F0B8
:1023A0007F00E083208C6FF30900C01D2084B4F807
:1023B000211068F38C01A4F82110618C6BF34F118C
:1023C0006184A08C6FF30900A084B4F8251068F331
:1023D0008C01A4F82510E08C40F2573161F34F10C6
:1023E0003449E084AD31A1F17300FDF77CFF6D1D30
:1023F000B5FBF9F084F82800B5FBF6F0B0FBF6F178
:1024000006FB110084F82900B5FBF6F006FB10501E
:1024100084F82A0014F82B0F67F3020020F038002C
:1024200020302070208820F4707000F5E07024F8CF
:10243000010B207820F03C00103004F8400902988D
:10244000A0F26311A0F20910002901DC00F58771E8
:10245000B4F84020002861F38E12A4F84020B4F8AC
:10246000411001DC00F5B47060F3CF11A4F8411005
:1024700034F8430F6FF3090009302080B4F80110DD
:1024800068F38C01A4F8011061886BF34F1161802F
:10249000A0886FF30900A080B4F80510282060F32D
:1024A0008C01A4F80510E18860F34F11E18003E08E
:1024B000740000206316002009490F22A1F1730067
:1024C000FDF711FF06485A21BC38FEF73BFB03B06D
:1024D0000349BDE8F04F5A22BC39024802F0BDB8AA
:1024E0001F17002084080020102000F01FBF2020AC
:1024F00000F01CBF704702460020431E115C2029DB
:1025000004D011B1401C6428F8DB18467047000065
:102510002DE9FF4F914C87B08B46607ADDF85480EF
:10252000FF2801D100206072C0B28D4E401C8B4D3F
:102530006072A52131702035512129802978717070
:102540006978B170F07005213046FEF70FFB40F25C
:1025500001302880287870716878B07140F20310DB
:1025600028802878F07168783072B4F844002880A8
:10257000297871726978B17240F480702880287867
:10258000F0726878307301264FF4876103270225C3
:102590004FF01409009640F2262ACDE90471CDE9E6
:1025A0000295CDF818A00196608B0523401C80B2DF
:1025B00042460021FEF7CCF94FF44D714FF46B7099
:1025C000BBF11E0FCDE9050106DD0096CDE90357ED
:1025D0000F20CDE9015006E00421CDE90061CDF8DE
:1025E0000890CDE90357608B0623801C80B201213F
:1025F000169AFEF7ADF9B846CDE90358642140F2CA
:10260000B132CDF80890CDE90521CDE90065608BA8
:102610004F46C01C80B206230221169AFEF798F995
:1026200040F28A2203A84FF4C869069280E820038A
:10263000CDE900650297608B0623001D80B203215F
:10264000169AFEF785F914985A2806DA03A880E846
:102650002007CDE90065029706E00420CDE900607F
:1026600003A8029780E82007608B0623401D80B2F4
:102670000421169AFEF76CF93A490F22A1F564700D
:10268000FDF731FE0798354C00EB800048344000E0
:10269000334D2060207805F8180F60786870A078B6
:1026A000A8703049E078E8700F310F22A1F564700E
:1026B000FDF719FEC4F800B02078E873607828743C
:1026C000A07868742749E078A8741E310F22A1F51C
:1026D0006470FDF708FE099820602078A87760787C
:1026E000E877A07885F820001E49E07885F8210079
:1026F0002D310F22A1F56470FDF7F5FD0A982060D9
:10270000207885F82D00607885F82E00A07885F86F
:102710002F001449E07885F830003C310F22A1F5F4
:102720006470FDF7E0FD14982060207885F83C0087
:10273000607885F83D00A07885F83E00E07885F85F
:102740003F005A210648FEF7FDF90BB05A22BDE8BA
:10275000F04F0349044801F080BF000074000020DE
:102760007B120020181600208408002010B558B1F4
:10277000084C491E0BD310F8013B5340DBB234F830
:10278000133083EA1222F4E74FF6FF7010BD1046B3
:1027900010BD00004480000810B5054C04E000BFE7
:1027A00010F8013B5340E25C491EF9D2104610BDBF
:1027B000447F000890F82020012A07D0022A05D083
:1027C000416A41F4802141620120704700684269FA
:1027D0000A43426100207047F0B590F82050046829
:1027E000A468012D05D0022D03D0416A41F4802157
:1027F0005DE014F0406F01D1E50055D5C4F30164EC
:10280000022C03D9416A41F4000150E00125A540A2
:102810001D608D684FF4C0739DB1CE6835434E681E
:1028200045EAC605066803EB0417F5514FF4C27577
:10283000076805EB04150E697E51097D012905D055
:1028400009E00E88CD6845EA4655EBE701684E5928
:1028500046F480764E511179D579567941EA056171
:1028600095792D0445EA062529434FF4C676056877
:1028700006EB0416A9511178D57841EA05619578DF
:1028800052782D0445EA022211434FF4C4750268C0
:1028900005EB04155151006803EB0411425842F056
:1028A000010242500020F0BD416A41F40011416232
:1028B0000120F0BD10B590F82020012A07D0022A8F
:1028C00005D0416A41F480214162012010BD3B489E
:1028D000D0F8002242F00102C0F80022D0F8002215
:1028E00022F47C52C0F80022D0F800224B6A42EA5F
:1028F0000322C0F800220A7D02F01F0301229A4041
:10290000D0F81C329343C0F81C32CB69B3B9D0F86D
:102910000C329343C0F80C328C894B6864F31F432C
:102920004C6900EBC404C4F840320C890B6864F3B2
:102930001F434C6900EBC404C4F84432CB69012B3B
:1029400016D1D0F80C321343C0F80C320C884B6807
:1029500064F31F434C6900EBC404C4F840320C8993
:10296000CB6864F31F434C6900EBC404C4F84432E1
:102970008B69002BD0F804320ED01343C0F8043218
:102980000B69002BD0F8143208D01343C0F814326E
:10299000096A012904D008E09343EFE79343F5E780
:1029A000D0F81C121143C0F81C12D0F8001221F00C
:1029B0000101C0F80012002010BD000000640040BA
:1029C000704730B590F82040012C05D0022C03D080
:1029D000416A41F480215DE00468002955D02469F2
:1029E000A40754D04FF4D874056804EB01142D5992
:1029F00015F00405956005682D594ED0ED08556019
:102A000005682C5904F00204D4604FF4DA740568A8
:102A100004EB01142D5905F00F05156105682D59BA
:102A2000C5F30725956105682C59240C54614FF4B2
:102A3000DC72046802EB0112A4581C700468A458EC
:102A4000240A5C700468A458240C9C700468A25882
:102A5000120EDA704FF4DE72046802EB0112A45811
:102A60001C710468A458240A5C710468A458240CDE
:102A70009C710468A258120EDA71006881B1016974
:102A800041F020010161002030BDE468A8E7416AFF
:102A900041F400114162012030BD6D0D1560AFE7BA
:102AA000C16841F02001C160EDE72DE9F05F054606
:102AB000006800244669D0F804908768D0F80CB00C
:102AC000D0F810A0D0F81880F10748D0F90714D03A
:102AD00001218160B80703D5284600F09CFA0CE07C
:102AE000780702D54FF4006407E0380702D54FF4A9
:102AF000805402E0284600F08DFAF80516D52968C2
:102B00004FF480708860B80503D5284600F085FA38
:102B10000CE0780502D544F4005407E0380502D5EE
:102B200044F4804402E0284600F076FAF80316D513
:102B300029684FF480308860B80303D5284600F038
:102B40006EFA0CE0780302D544F4004407E0380341
:102B500002D544F4803402E0284600F05FFA3007E2
:102B600007D55FEACB6004D52968102044F40074CF
:102B7000C86070074FF0080707D55FEA0B7004D5EF
:102B80002868C760284600F0A9F9B00706D528686C
:102B9000C068800702D0284600F0A2F9700607D569
:102BA0005FEACA6004D52968102044F48064086193
:102BB000B00607D55FEA0A7004D528680761284681
:102BC00000F0F8F9F00606D528680069800702D001
:102BD000284600F0F0F9B00308D55FEAC96005D5D2
:102BE000296810204860284600F0E6F9F00307D570
:102BF0005FEA097004D528684760284600F010FA9B
:102C0000300446D55FEA497040D5F00504D55FEA47
:102C1000C87001D044F00104B00504D55FEA8870A3
:102C200001D544F00204700504D55FEA487001D56F
:102C300044F00404300529D518F0700F26D008F0B0
:102C40007000402815D006DC102809D020280AD0B2
:102C5000302816D10AE050280ED0602811D10EE09D
:102C600044F008040DE044F010040AE044F02004AD
:102C700007E044F0400404E044F0800401E044F440
:102C800080742868816921F07001816129680420BD
:102C90004860002C05D0686A204368622846FFF728
:102CA0008FFEBDE8F09F70B5040003D094F82000BB
:102CB00010B104E0012070BD204600F081F82068CA
:102CC000016821F00201016000F01EFC05460526A6
:102CD00004E000F019FC401B0A2811D82068406865
:102CE0008007F6D42068016841F00101016000F01E
:102CF0000BFC05460BE000F007FC401B0A2806D938
:102D0000606A40F40030606284F82060D2E7206896
:102D10004068C007EFD0207E0128206801683DD0C0
:102D200021F080010160607E01282068016838D0B0
:102D300021F040010160A07E01282068016833D0A5
:102D400021F020010160E07E0128206801682ED07A
:102D500041F010010160207F01282068016829D01E
:102D600021F008010160607F01282068016824D0FB
:102D700021F004010160D4E902010843D4E90412FE
:102D8000114308436168491E08432168C861002057
:102D90006062012084F82000002070BD41F08001B5
:102DA000C0E741F04001C5E741F02001CAE721F04A
:102DB0001001CFE741F00801D4E741F00401D9E761
:102DC000F0B587B0044614216846FDF7A5FA3E4BDE
:102DD0003E48DFF8F0E01968D4F800C03B4A03250C
:102DE0000226092710300024491CF4452AD1196015
:102DF000012907D1016841F000710160006800F00D
:102E000000700590106840F0080010601068CDE96F
:102E1000005600F00800CDE9047069462C48CDE961
:102E2000024500F08FFA00220721132000F0DEFB9C
:102E3000132000F0CDFB00220721142000F0D6FB68
:102E400014203AE0DFF88CE0F44538D1D0F800C027
:102E50004CF0806CC0F800C0D0F800C001290CF024
:102E6000806CCDF814C0196007D1016841F0007181
:102E70000160006800F000700590106840F00200EA
:102E80001060106802AB00F0020005906020CDE9F0
:102E9000000683E8B00069460F4800F053FA0022AC
:102EA00007213F2000F0A2FB3F2000F091FB002211
:102EB0000721402000F09AFB402000F089FB07B07A
:102EC000F0BD0000006400401000002030380240D7
:102ED000000C0240006800400004024070470000FF
:102EE00010B5044600682E4994B0884205D111AB54
:102EF0000AAA00212B48FFF764FD2B49206888426D
:102F00002CD107AB6A4600212848FFF75AFD0099EB
:102F10002748B1F5407F23D0A1F5407101391DD17B
:102F20009DF81C1001719DF81D1041719DF81E1037
:102F300081719DF81F10C1719DF8201001729DF8DC
:102F4000211041729DF822108173B0F90410816143
:102F5000B0F90610C161B0F90810016214B010BDDB
:102F60009DF81C1001709DF81D1041709DF81E10F9
:102F700081709DF81F10C1709DF82010C1729DF8DE
:102F8000211081729DF8221001739DF82310417366
:102F9000B0F900100161B0F902104161DEE70000F4
:102FA000006400409C06002000680040C406002029
:102FB00024090020704770477047000070B5044630
:102FC00090F82000012804D0606A40F4002060627C
:102FD00018E0022084F820002068016821F0010137
:102FE000016000F091FA05460EE000BF00F08CFA97
:102FF000401B0A2808D9606A40F40030606205204E
:1030000084F82000012070BD20684068C007EDD121
:10301000606270BD70477047704770477047704777
:10302000704790F83510022903D0802141650120B6
:103030007047052180F835100068016821F0010112
:1030400001600020704700002DE9F84304464FF06E
:103050000009CDF8009063484FF41651A56D006843
:10306000B0FBF1F72E6894F85C10082000FA01F12B
:1030700031420FD021680A6852070BD50A6822F046
:1030800004020A6094F85C108840A860606D40F00B
:103090000100606594F85C104FF0010808FA01F037
:1030A000304208D021684969090604D5A860606DDE
:1030B00040F00200606594F85C10042088403042C3
:1030C00008D021680968890704D5A860606D40F0C0
:1030D0000400606594F85C1010208840304218D0DD
:1030E00021680968090714D5A860206801684903A8
:1030F00004D50068000308D5A16C07E00168C90584
:1031000003D4016821F008010160216C09B1204657
:10311000884794F85C1020208840304231D02168E4
:103120000968C9062DD5A86094F8350005282068DF
:10313000016806D0490347D5006800031DD4616CBF
:103140001CE021F0160101602068416921F0800136
:103150004161206C08B9A06C20B12068016821F0A1
:103160000801016094F85C103F208840A86084F852
:10317000349084F83580216D1FE0E16B09B1204661
:103180008847606D00282BD0606DC00714D00520E3
:1031900084F835002068016821F001010160009881
:1031A000401C0090B84203D820680068C007F6D1E0
:1031B00084F8349084F83580E16C002910D001B097
:1031C0002046BDE8F04308470168C905D5D4016829
:1031D00021F01001016084F8349084F83580CCE748
:1031E000BDE8F883200000202DE9F041044600F0FE
:1031F0008BF906465CB1002584F83450022084F82F
:1032000035002068016821F0010101600DE0012016
:10321000BDE8F08100F078F9801B052805D9202051
:103220006065032084F83500F2E720680068C00775
:10323000F0D12268116820480140D4E90103184305
:10324000D4E903363343184363691843A369184329
:10325000E3691843236A18430843616A042903D1C8
:10326000D4E90B1319430843106020684069666A6B
:1032700020F0070130460E43012704280CD1A06A34
:103280000643E06A40B12046FEF744FE20B14020EC
:10329000606584F83570BAE7206846612046FEF71D
:1032A00025FE94F85C203F2191408160656584F89B
:1032B00035700020ACE700003F8010F02DE9F041B0
:1032C0000446866D90F83400002501280DD00120B9
:1032D00084F8340094F835700020012F07D084F86A
:1032E000340002252846BDE8F0810220FBE70227D2
:1032F00084F8357060652046FEF736FE94F85C1061
:103300003F208840B0602068016841F016010160EC
:10331000206C20B12068016841F00801016020683C
:10332000016841F001010160DCE77047044910B514
:103330000A68024202D00860FFF7F7FF10BD0000E4
:10334000143C01402DE9F84F00224FF001080325FD
:103350004FF00F0E0B6808FA02F42340A3426ED11F
:103360004E68012E05D0022E03D0112E01D0122E50
:1033700012D186684FEA420C05FA0CF7BE43CF68BB
:1033800007FA0CF7374387604668A6430C79C4F305
:103390000014944034434460C668570005FA07FCA3
:1033A0008C6826EA0C06BC403443C4604C68022C8E
:1033B00001D0122C13D1D40800EB8404A346D4F816
:1033C000209054074FEAD46A0EFA0AF629EA060951
:1033D0000E6906FA0AF646EA0906CBF82060066886
:1033E0000C7926EA0C0604F00304BC403443046064
:1033F0004C68E40065D5364C266846F48046266065
:10340000246822F0030604F480440094314C3444D0
:10341000A446D4F808489607370F0EFA07F6B443C7
:103420002D4EB04201D1002624E02C4EB04201D1F5
:1034300001261FE02A4EB04202D102261AE040E0E7
:10344000284EB04201D1032614E0274EB04201D1EC
:1034500004260FE0254EB04201D105260AE0244E95
:10346000B04201D1062605E0224EB04201D1072626
:1034700000E00826BE402643CCF808681E4E34689B
:103480004F689C43FF0300D51C4334601A4C241D35
:1034900026684F689E43BF0300D51E432660164E24
:1034A000083634684F689C43FF0200D51C433460E3
:1034B000114E0C3634684F689C43BF0200D51C4344
:1034C0003460521C102AFFF445AFBDE8F88F0000AD
:1034D0004438024000300140000002400004024035
:1034E00000080240000C024000100240001402409C
:1034F00000180240001C0240003C01400AB18161FA
:1035000070470904FBE7000001488068704700002D
:1035100014000020024881680278114481607047DD
:10352000140000200B4810B5016841F400710160DF
:10353000016841F480610160016841F480710160BB
:10354000032000F073F80F2000F006F800F024F8D4
:10355000002010BD003C024070B50D4D04464FF4F4
:103560007A712878B1FBF0F00A490968B1FBF0F0F4
:1035700000F0B9FC48B9102C07D200222146501E99
:1035800000F034F800206C6070BD012070BD0000B8
:1035900014000020200000200C4882B0016841F493
:1035A00080410160006800F4804000900748001FDF
:1035B000016841F0805101600068002200F08050F5
:1035C00000900F21901E02B000F010B84438024065
:1035D000002809DB00F01F02012191404009800012
:1035E00000F1E020C0F8001170470000F0B40E4B6D
:1035F0001B680C46C3F30223C3F10705042D00D951
:103600000425191D072901D2002300E0DB1E012635
:1036100006FA05F1491E214099409E40761E16404B
:103620003143F0BC02F044BA0CED00E0064900F072
:10363000070208684FF6FF03184040EA0220034AD9
:1036400010430860704700000CED00E00000FA0530
:103650002DE9F0470E46050065D0DFF81481D8F853
:103660000000F7B200F00F00B04207D288F80070F7
:10367000D8F8000000F00F00B04254D128683D4C4B
:10368000810712D5400703D5206840F4E050206040
:103690002878000703D5206840F460402060206847
:1036A000A96820F0F000084320602878C0072DD0DA
:1036B000304968680839012812D0022813D003283D
:1036C00011D00968890700292DDA216821F003014A
:1036D00001432160FFF718FF814641F2883A0EE06E
:1036E00009688903EFE709688901ECE7FFF70CFF38
:1036F000A0EB0901514502D90320BDE8F0872068FD
:10370000696800F00C00B0EB810FEFD1D8F8001021
:10371000404601F00F01B14207D90770006800F080
:103720000F00B04201D00120E7E72878400705D517
:103730002068E96820F4E0500843206028780007FA
:1037400006D52068296920F4604040EAC100206065
:1037500000F038F82168084AC1F30311515CC840F1
:103760000649086006480068FFF7F6FE0020C4E737
:10377000003C0240083802402C7F00082000002056
:10378000180000200448054900680968044AC1F38C
:103790008221515CC8407047200000200838024058
:1037A0003C7F00080448054900680968044AC1F3E1
:1037B0004231515CC8407047200000200838024068
:1037C0003C7F0008154810B5006810F00C02144842
:1037D00013D01449042A0FD0082A0ED10F4C241FED
:1037E0002268236802F03F025B0207D52068C0F31D
:1037F0008810A0FB010106E0084610BD2168C1F356
:103800008811A1FB00010023FCF73CFD2168C1F3F6
:103810000141491C4900B0FBF1F010BD08380240DD
:103820000024F400001BB7002DE9F84F04006ED00F
:103830002078DFF83C93C007A9F104054AD009F1CC
:1038400004000168C1F38101012908D00068C0F3B8
:10385000810002280AD1D9F80000400206D5286864
:10386000800337D560680028E1D033E06068B0F5A8
:10387000803F10D0B0F5A02F286810D020F4803001
:103880002860286820F4802028606068A8B1FFF7CD
:103890003BFE06460DE0286840F48030F4E740F433
:1038A00080202860F7E700BFFFF72EFE801B64280A
:1038B00073D828688003F7D50CE0FFF725FE06468D
:1038C00005E000BFFFF720FE801B6428F0D82868C1
:1038D0008003F7D42078DFF89C8280074FF0000A3D
:1038E0003ED5A348001D016811F00C0F08D00068F8
:1038F000C0F3810002280BD1D9F80000400207D4A0
:103900002868800716D5E068012800D112E02BE175
:10391000E068B8B10120C8F80000FFF7F5FD0646E1
:1039200005E000BFFFF7F0FD801B0228C0D8286823
:103930008007F7D52868216920F0F80040EAC10027
:1039400028600DE0C8F800A0FFF7DEFD064604E0A1
:10395000FFF7DAFD801B02281FD828688007F7D4FC
:103960002078000722D5824E83486169703671B194
:1039700001210160FFF7C8FD074604E0FFF7C4FD21
:10398000C01B022809D830688007F7D50EE0C0F8C0
:1039900000A0FFF7B9FD074605E082E0FFF7B4FDA0
:1039A000C01B02287DD830688007F7D420784007F4
:1039B00068D5DFF8BCB100270BF13C0BDBF8000049
:1039C000C0000BD4DBF8001041F08051CBF80010A0
:1039D000DBF80000012700F080500090674E30684F
:1039E000C00510D4306840F480703060FFF78CFD63
:1039F000009005E0FFF788FD0099401A022850D892
:103A00003068C005F6D55A4EA0686C3601280FD034
:103A10000528306810D020F001003060306820F0B8
:103A200004003060A068B8B1FFF76EFD00900FE0B1
:103A3000306840F00100F4E740F004003060F7E740
:103A4000FFF762FD0099411A41F28830814266D841
:103A500030688007F4D50EE0FFF756FD009007E0D0
:103A6000FFF752FD0099411A41F28830814256D841
:103A700030688007F4D42FB1DBF8001021F08051BA
:103A8000CBF80010A069C8B33949091D0968C1F312
:103A9000810102294AD00228504607D0C8F86000A8
:103AA00000E03CE0FFF730FD04463BE04746C8F845
:103AB0006000FFF729FD064605E000BFFFF724FD83
:103AC000801B02282BD828688001F7D4D4E907018D
:103AD0000843A16A2A4A490802EB0141626A41EAA5
:103AE0008211084394F82C1040EA0161C9F80010D3
:103AF00001203866FFF708FD044606E036E000BF07
:103B0000FFF702FD001B022809D828688001F7D5BD
:103B10002CE000BFFFF7F8FC001B022802D90320AD
:103B2000BDE8F88F28688001F4D41FE00128F7D0A1
:103B3000D9F80000E26900F48001914214D1226AB0
:103B400000F03F0191420FD147F6C071626A014017
:103B5000914209D1A26A00F44031914204D1E16A54
:103B600000F07060884201D00120D9E70020D7E73B
:103B70000438024000004742800E47420070004077
:103B80000000FFFF70B5040005D00025A56294F881
:103B9000510010B106E0012070BD84F8505020465D
:103BA00000F030F8022084F851002068016821F00C
:103BB00040010160D4E901010843D4E90312114333
:103BC000084361690843218B01F400710843E169EE
:103BD0000843216A0843A16A084321680860A06974
:103BE000042101EA1040616A0843216848602068A6
:103BF000C16921F40061C1616565012084F851004B
:103C0000002070BD2DE9F04186B0064614216846BB
:103C1000FCF782FB35493068884264D1344800247F
:103C2000016841F480510160006800F48050059003
:103C30002F481438016841F002010160016801F069
:103C400002010591016841F001010160006802254F
:103C500000F0010005901820CDE9000502AA032715
:103C60004FF0050882E8900169462248FFF76AFB99
:103C70008020CDE9000502AA694682E890011E482D
:103C8000FFF760FB1E4D1D487F062860C5E90174E3
:103C90004FF48068C5E903486C617812AC61C5E9EE
:103CA000074028466C62FFF79FFA08B1FEF722FC36
:103CB000F564AE63124D114860351830E5E802072F
:103CC0004020A5E81101C00245F81449AC61C5E9DE
:103CD00007400B486C626030FFF786FA08B1FEF7C8
:103CE00009FCB564AE6306B0BDE8F0810030014068
:103CF0004438024000040240000002404064024098
:103D0000440700202DE9F84F044690F850000027A2
:103D10000A9E1D4692468B464FF0010901280ED09F
:103D2000012084F85000FFF7EFFB804694F8510023
:103D3000616801280CD0B1F5827F07D102E0022032
:103D4000BDE8F88FA16809B9042801D00227C2E0B4
:103D5000BBF1000F27D0BAF1000F24D01DB394F8A7
:103D60005100042802D0052084F85100002060652D
:103D7000C4F838A0E587A587C4F830B0E586A586E5
:103D80002064606420680168490603D4016841F03A
:103D900040010160E068B0F5006F606805D0E8B3ED
:103DA000012D46D07FE0012795E008B1012D39D1E2
:103DB000206B21680088C860206B801C2063E08E27
:103DC000401EE0862EE02068816889070FD5E18ECD
:103DD00069B1B9F1010F0AD1216B0988C160206B6B
:103DE000801C2063E08E401EE0864FF000092068B2
:103DF0008168C9070CD0E18F51B1C068A16B088000
:103E0000A06B801CA063E08F401EE0874FF001098B
:103E1000FFF77AFBA0EB0800B04200E009E001D315
:103E2000701C50D1E08E0028CDD1E08F0028CAD17F
:103E30003FE0206B216800780873206B401C2063F2
:103E4000E08E401EE0862EE02068816889070FD54D
:103E5000E18E69B1B9F1010F0AD1216B09780173C3
:103E6000206B401C2063E08E401EE0864FF000096E
:103E700020688168C9070CD0E18F51B1C068A16B7F
:103E80000870A06B401CA063E08F401EE0874FF0DD
:103E90000109FFF739FBA0EB0800B04202D3701C08
:103EA00001D010E07EB1E08E0028CDD1E08F002857
:103EB000CAD142463146204600F01AFF28B10127F8
:103EC0002020606507E0032705E0A06818B9206896
:103ED000C16880680090012084F85100002084F8B7
:103EE000500038462CE710B5401EB0F1807F01D35A
:103EF000012010BD4FF0E02460610F21601701F038
:103F0000D7FD0020A06107202061002010BD704770
:103F1000704710B5040003D094F83D0010B107E0DD
:103F2000012010BD002084F83C00204600F00CF871
:103F3000022084F83D00211D206801F087FA01204D
:103F400084F83D00002010BD08B500680B49884288
:103F500012D10B48016841F4003101600068002271
:103F600000F40030009005211920FFF73FFBBDE869
:103F700008401920FFF72CBB08BD00000044014099
:103F800044380240704770B50446006801694FF03C
:103F90000005C943890715D4C168C943890711D4ED
:103FA000E91E016101202077206880698007204692
:103FB00002D0FFF7E7FF04E000F0C2F8204600F06F
:103FC00044F9257720680169C943490717D4C168B6
:103FD000C943490713D46FF004010161022020771F
:103FE0002068806910F4407F204602D0FFF7CAFFA6
:103FF00004E000F0A5F8204600F027F925772068B6
:104000000169C943090716D4C168C943090712D415
:104010006FF008010161042020772068C0698007E3
:10402000204602D0FFF7AEFF04E000F089F82046FA
:1040300000F00BF9257720680169C943C90617D438
:10404000C168C943C90613D46FF01001016108208B
:1040500020772068C06910F4407F204602D0FFF727
:1040600091FF04E000F06CF8204600F0EEF82577B0
:1040700020680169C943C90708D1C168C943C90794
:1040800004D1891E0161204600F0E0F82068016932
:10409000C943090609D4C168C943090605D46FF0AC
:1040A000800101612046FFF732FF20680169C943A2
:1040B000490609D4C168C943490605D46FF04001D7
:1040C0000161204600F0C3F820680169C9438906F0
:1040D0000BD4C168C943890607D46FF02001016180
:1040E0002046BDE87040FFF713BF70BD10B586B025
:1040F000044614216846FCF70FF90E4920688842EF
:1041000015D10D48016841F02001016000680121CE
:1041100000F020000590402000900220CDE9010130
:1041200003900320049069460448FFF70BF906B09A
:1041300010BD00000044014030380240001402402D
:10414000704770B5044690F83C000D4601280DD02C
:10415000012684F83C60022084F83D0042B1042A24
:1041600018D0082A2AD00C2A4DD139E0022070BD7F
:10417000206801F0CFF92068816941F00801816170
:104180002068816921F004018161206881692A69C0
:10419000114311E0206801F0EDF92068816941F4D4
:1041A000006181612068816921F4806181612068FA
:1041B00081692A6941EA0221816124E0206801F0D5
:1041C0000FFA2068C16941F00801C1612068C16926
:1041D00021F00401C1612068C1692A69114311E01D
:1041E000206801F031FA2068C16941F40061C161C1
:1041F0002068C16921F48061C1612068C1692A69B0
:1042000041EA0221C16184F83D60002084F83C004D
:1042100070BD10B5040003D094F83D0010B107E064
:10422000012010BD002084F83C00204600F00CF86E
:10423000022084F83D00211D206801F007F90120CB
:1042400084F83D00002010BD7047704770477047EC
:1042500008B5C16B082903D1006801684068009067
:1042600008BD000070B5026804461068D168536943
:1042700010F00F0F52D003F0010501F490762E4399
:104280005FD0C20705D0CA0503D5E26B42F0010238
:10429000E263420705D5DA0703D0E26B42F002027F
:1042A000E263820705D5DA0703D0E26B42F004022D
:1042B000E263020707D501F020022A4303D0E26B34
:1042C00042F00802E263E26B002A33D0800604D594
:1042D000880602D5204601F080FA20684069E16B2B
:1042E000C0F38010090700D428B3204601F05EFA1D
:1042F0002068416949061AD5416921F040014161B0
:10430000606BA0B11B490165606BFEF78AFE002857
:1043100010D0606B016DBDE870400847830610D572
:104320008B060ED52046BDE8704001F056BA2046F7
:10433000FFF78EFF70BD2046FFF78AFF0020E06385
:1043400070BD030606D50B0604D52046BDE87040B7
:1043500001F022BB4006F3D54806F1D5D1682046CE
:1043600021F04001D160202184F8391000F094F947
:1043700070BD00000D57000870B5040004D094F81B
:104380003900002510B106E0012070BD84F83850D6
:10439000204600F023F8242084F839002068C16802
:1043A00021F40051C160204601F062FA20680169E1
:1043B00021F4904101612068416921F02A014161A5
:1043C0002068C16841F40051C160E563202084F891
:1043D000390084F83A00002070BD0000F0B587B0C5
:1043E000064614216846FBF797FF3E493C4B32686E
:1043F00000253C481439022403279A422FD1026831
:1044000042F010020260006800F010000590086899
:1044100040F002000860086800F00200059008689B
:1044200040F0010008600868072600F001000590D0
:10443000802004968DE8B10069462B48FEF782FF84
:10444000200204968DE8B10069462848FEF77AFFFD
:10445000002207212520FFF7C9F825203BE0244B47
:104460009A423AD1026842F020020260006800F0ED
:1044700020000590086840F0400008600868694620
:1044800000F0400005904FF484408DE8B100082012
:1044900004901848FEF756FF184C17482060800516
:1044A000C4E901054FF48060C4E9035065614FF42D
:1044B0004030A561C4E9075020466562FEF794FECE
:1044C00008B1FEF717F87463002204214720A663A1
:1044D000FFF78CF84720FFF77BF807B0F0BD00002E
:1044E0000010014044380240000402400000024035
:1044F000001401400018024028640240C408002053
:10450000F8B5044690F83A0020283CD1C1B3BAB3BC
:1045100094F83800012836D0012084F83800A162D0
:10452000A2850025E563222084F83A00636B1748D2
:10453000D863636B16481864636B1648D864606B65
:10454000134605650846666B216802463046091D1C
:10455000FEF7B4FE206801684168009184F8385085
:10456000C16841F48071C1602068416941F0010176
:1045700041612068416941F0400141610020F8BD7E
:10458000FFE70120FBE70220F9E70000675700087A
:10459000A35700081D57000890F83A30202B22D16D
:1045A000F9B1F2B190F83830012B1CD081628285CC
:1045B000C2850021C163222280F83A2080F8381099
:1045C0000168CA6842F48072CA6001684A6942F0B0
:1045D00001024A610068C16841F02001C160002009
:1045E00070470120704702207047000038B504462C
:1045F0000068134988420DD112480078FDF70CFD80
:104600001148006801684068009001220D490E4879
:10461000FFF7C2FF0D49206888420FD10C4800689F
:104620000168406800900B48007800F037F8BDE85A
:104630003840012207490648FFF7AEBF38BD0000E9
:1046400000100140480900204408002000140140E7
:104650008408002024000020704790F83930202B77
:1046600018D1A9B1A2B190F83830012B12D0016253
:104670008284C2840021C163212280F8392080F81D
:1046800038100068C16841F08001C16000207047A7
:1046900001207047022070477047FEE72DE9F04780
:1046A00086490124DFF8188207464FF00009A52843
:1046B0000FD0D8F8340008F1200AA1F11005052820
:1046C00029DA0F54401C0E46C8F83400052807D0DC
:1046D00021E0C8F834400870C8F83C90BDE8F08785
:1046E0000521764801F0C0F9A8B172788AF8002057
:1046F000B2788AF80120BAF80010A8F81410F078FF
:1047000088F801000520C8E90E0428696862287D40
:1047100085F82800E2E7D8F83C000028DED0B8F998
:104720001410664ED8F8380014360931884203DA7E
:104730003754401CC8F838008842CFD15F48C8F8C9
:104740003C90143001F072F90028C7D071798AF8D2
:104750000010B1798AF80110BAF90010A8F81E10FB
:10476000D8F84000C8F83040401CC8F84000534812
:1047700040F202231038A1F20222994274D022DCC6
:10478000B1F5817F5AD00FDC012942D0022949D0EE
:1047900003294DD0A1F5807101399FD1C470D5F89E
:1047A0002B00C8F84C0099E7A1F5807103394BD074
:1047B000012952D0FE2991D1C4711B2288F80040F2
:1047C000F11D404821E0042A60D00BDC012A51D0C1
:1047D000022A55D0032A81D1C472B5F82B00A8F85B
:1047E00022007BE7052A57D0062A61D0FF2A91D103
:1047F000C47355F82B0FC8F854003049A8887022AC
:10480000A8F85800213101F22970BDE8F047FBF704
:104810006ABD047035F82B0FA8F82800A87888F82E
:104820002A005BE7447095F82B0088F8110055E7E3
:10483000847024481C22F11D1C38E6E70471D5F869
:104840002B00C8F8500049E7447135F82B0FA8F841
:104850002B00A87888F82D0040E78471B5F82B006C
:10486000A8F824003AE7FFE7047216481022F11D69
:104870001B30CAE7447213481022F11D2B30C4E7E5
:10488000847295F82B0088F8120027E7047395F8D6
:104890002B0088F8130021E7447355F82B0FC8F854
:1048A0005A00A888A8F85E00A87988F8600015E783
:1048B0008473B5F82B00A8F826000FE7C80D002078
:1048C00074000020D7140020104810B50E49016074
:1048D0000321416000214FF410228160C0E90312DE
:1048E0004FF4001242610176012242768176C17650
:1048F00001774177FEF7D7F9002803D0BDE81040D3
:10490000FDF7F8BD10BD0000006400409C060020CB
:10491000114810B50F4901600321416000214FF09B
:104920004072C0E902124FF4102202614FF40012EB
:1049300042610176012242768176C1760177417724
:10494000FEF7B1F9002803D0BDE81040FDF7D2BD55
:1049500010BD000000680040C4060020114808B5E2
:10496000016841F4800101600068002200F48000C9
:10497000009005213920FEF739FE3920FEF728FE88
:10498000002205213A20FEF731FE3A20FEF720FEF4
:10499000002205213B20FEF729FEBDE808403B2010
:1049A000FEF716BE3038024010B59CB01C221649E6
:1049B0006846FBF798FC0021684601F0DFFE134CC7
:1049C00011491C2220601C3107A8FBF78CFC002138
:1049D00007A801F0D3FE0C4960601C2238310EA8F4
:1049E000FBF781FC00210EA801F0C8FE0649A0607B
:1049F0001C22543115A8FBF776FC002115A801F004
:104A0000BDFEE0601CB010BDB47E000800000020B8
:104A10002DE9F04387B014216846FBF77DFC51482F
:104A20000025016841F002010160016801F0020106
:104A30000591016841F040010160016801F0400109
:104A40000591016841F001010160016801F0010177
:104A50000591016841F008010160016801F0080159
:104A60000591016841F480710160016801F4807171
:104A70000591016841F080010160016801F0800149
:104A80000591016841F020010160016801F02001F9
:104A90000591016841F0040101600068324F00F0A7
:104AA00004004FF4E0560590012231463846FEF7E7
:104AB00025FDDFF8B880012210214046FEF71EFDDB
:104AC000DFF8AC90012211464846FEF717FD602042
:104AD00002248DE8310003200390072004906946EA
:104AE0002448FEF72FFCC020CDE9000501256946CA
:104AF00021480295FEF726FCCDE90065CDE9025478
:104B000069463846FEF71EFC1020CDE90005CDE9C8
:104B1000025469464046FEF715FC302000901748C5
:104B2000CDE9010569461648FEF70CFCCDE90254B3
:104B30000095694648460195FEF704FC00220521D0
:104B40000A20FEF753FD0A20FEF742FD0022052150
:104B50001720FEF74BFD1720FEF73AFD07B0BDE822
:104B6000F083000030380240001C02400000024088
:104B700000040240000C024000200240000021100E
:104B800000080240104810B50E4901604FF48271D0
:104B90004160002102228160C0E9031201224261CA
:104BA000520282613822C0E90721416281620A21F2
:104BB000C162FEF7E7FF002803D0BDE81040FDF713
:104BC00099BC10BD00300140EC06002010B588B043
:104BD0001C216846FBF7A0FB144813490024C0E9D8
:104BE000001441F28731C0E9024104618461FFF79A
:104BF00090F908B1FDF77EFC0C48FFF70AFB08B1FD
:104C0000FDF778FC6020CDE900040294002269469B
:104C100006480494FFF795FA08B1FDF76BFC0348CA
:104C2000FFF764FA08B010BD0044014004080020FA
:104C30000C4810B50A4901604FF4E1314160002190
:104C400081600C22C160C0E904128161C161FFF77B
:104C500093FB002803D0BDE81040FDF74BBC10BD0E
:104C600000100140440800200C4810B50A490160BA
:104C70004FF4E1314160002181600C22C160C0E944
:104C800004128161C161FFF777FB002803D0BDE802
:104C90001040FDF72FBC10BD001401408408002017
:104CA00010B50448FCF7B6F9BDE810400248FCF71F
:104CB000B1B900009C060020C406002010B50749C9
:104CC000074800F0A7FE012204490548FFF718FC39
:104CD000BDE810400349044800F09CBE480900208C
:104CE000440800202400002084080020FEE77047CC
:104CF00038B504461248134B0068B0FBF3F04FF48C
:104D00007A73584300906068B0F5827F0DD10B46EE
:104D1000009200228021204600F016F870B1606DEC
:104D200040F020006065032038BD009830B1401E7F
:104D3000009020688068C0430006F6D5002038BD8A
:104D40002000002000366E012DE9F0411D46174677
:104D50000E460446DDF8188008E0681C06D0FEF711
:104D6000D3FBA0EB0800A8420BD255B120688068A5
:104D700036EA000030D00020B842EED10020BDE875
:104D8000F0812068416821F0E00141606068B0F581
:104D9000827F0BD1A068B0F5004F02D0B0F5806FD4
:104DA00004D12068016821F040010160A06AB0F5DB
:104DB000005F09D12068016821F40051016020687A
:104DC000016841F400510160012084F85100002085
:104DD00084F850000320D2E70120CDE7F0B5144657
:104DE0000E460746FDF787FB0346384600F094FA67
:104DF0000146002002E03A5C3254401C9842FADB43
:104E00000025F554581C06E0A0EB030C3A5CA444C2
:104E1000401C0CF8012C8842F6DB65545B1C04D165
:104E200031463846FCF782FE2570F0BD10B50120F2
:104E300001F098FCFBE700F023F8022001F092FC5F
:104E4000F9E70000084D094C084A0749121F0C31C8
:104E50000548FBF7EBFE95ED020A022084ED000AFF
:104E600001F080FCF0E7000090380020B001002045
:104E7000FCF736FD00F0E4F8022001F073FCF7E7E0
:104E80002DE9F0476548664D00260178E9704178C4
:104E9000297181786971C078A8716248EE710168E2
:104EA000012900D106606048016800297ED05F4C6E
:104EB00006602078012800D126706078012800D192
:104EC0006670A078012800D1A670E078012800D192
:104ED000E6702079012800D126716079012800D17F
:104EE0006671A079012800D1A6714D4FE079DFF8F5
:104EF00040910A3F012820D1E67199F800102970ED
:104F000099F801106970B9F8141039803978A970CE
:104F10007978E970B9F8161039803978297179787B
:104F20006971B9F8180038803878A8717878E87114
:104F30003B4940F20310FCF77BF8207ADFF8E08071
:104F40000128A8F1080825D13A4926720888388036
:104F50004888388008893880387828707878687070
:104F60004A68C8F8002098F80020AA7098F8012034
:104F7000EA7098F802202A7198F803006871C889CD
:104F800038803878A8717878E871254940F20510A2
:104F9000FCF74EF8A07A012800D1A67226480178C5
:104FA000012917D1067099F81A0000E033E000F0EB
:104FB00001012970C0F340016970C0F38000A8703E
:104FC000174817490C38C0F80F60C6744FF4847046
:104FD000FCF72EF8207B012800D12673607B012886
:104FE00011D116486673D0F80310C8F8001098F86D
:104FF0000010E97098F80110297198F80210697191
:1050000098F80300A871A07B012800D1A673E07B6B
:10501000012800D1E673BDE8F0870000B001002050
:105020003001002020010020A4000020B80D002045
:10503000D7140020F214002074000020CE000020BD
:105040002DE9FE43654DA868401CA8600A2001F0C8
:1050500089FB0120FCF776FD0A2001F083FBFBF7BA
:10506000C9FE0A2001F07EFB0120FCF79DFE142002
:1050700001F078FB5A4C0121208B02B26069FDF7E8
:1050800015F80A2001F06EFB0120216ACDE900101D
:10509000029004F110000FC8FDF73AFA0A2001F05F
:1050A00061FB4FF4917701224FF452713846FCF7BF
:1050B0001BF90A2001F056FB4FF448784FF4AF7605
:1050C000012241463046FCF795F80A2001F04AFBE0
:1050D000012240F2EE213846FCF726FA0A2001F0C0
:1050E00041FB40F2C629012249463046FCF7AAFAA4
:1050F0000A2001F037FB01224FF425713846FCF7F6
:1051000081F90A2001F02EFB4FF41B77012239466A
:105110003046FBF7B9FF0A2001F024FB01224FF4CF
:10512000167140F24C40FCF747FB6878401C6870F1
:105130000A2001F017FB0220FCF704FD0A2001F011
:1051400011FB0120FCF730FE0A2001F00BFBFBF7FE
:1051500051FE0A2001F006FB0220216ACDE9001071
:10516000029004F110000FC8FDF7D2F9142001F0ED
:10517000F9FA208B022102B26069FCF797FF0A203E
:1051800001F0F0FA022241463046FCF733F80A20DB
:1051900001F0E8FA022249463046FCF753FA0A20A9
:1051A00001F0E0FA2878401CC0B22870217B022967
:1051B00005D00321B0FBF1F201FB120018B102226D
:1051C0003946304602E0002102220846FBF75CFF28
:1051D000BDE8FE430A2001F0C5BA0000240100200A
:1051E000240900202DE9F04106462DED088B4FF0F3
:1051F00000089FED438B4446B0EE489AF0EE689A63
:10520000305D58B1A0F130010A2903D32E2801D016
:105210002D2803D1641CE4B20A2CF1D3002504E04C
:10522000705D2E2803D06D1CEDB2A542F8D3002787
:105230009FED35AB15E0F05D2D2818D03038FBF729
:105240008FF941EC1B0B53EC1A2B51EC190BFBF7AC
:1052500015F953EC1B2BFBF76AF841EC190B7F1C7B
:10526000FFB2AF42E7D37F1CFDB22F4618E04FF0EC
:105270000108F4E7705D30380A2813D2FBF770F9A3
:1052800041EC1B0B53EC1A2B51EC180BFBF7F6F807
:1052900053EC1B2BFBF74BF841EC180B6D1CEDB2DC
:1052A000A542E7D300259FED1AABE41B0AE000BF3F
:1052B00053EC1A2B51EC180BFBF7E0F841EC180BF0
:1052C0006D1CEDB2AC42F3DC53EC182B51EC190B16
:1052D000FBF72DF841EC100BB8F1000F05D051ECA5
:1052E000100B81F0004141EC100B51EC100BFBF75F
:1052F0005BF9BDEC088B00EE100ABDE8F081000000
:105300000000000000000000000000000000244039
:105310009A9999999999B93F014600200A5C401CD5
:10532000002AFBD1401E704770B50B46074C04E0C5
:10533000E618C55C761A5B1C35709342F8DB0020DA
:105340002244511A0870014870BD0000300A002044
:1053500010B5FEF7DFF802F0EDFB012803D0BDE841
:10536000104002F01DB910BD30B593B03021684631
:10537000FAF7D2FF14210CA8FAF7CEFF194800253E
:10538000016841F080510160006800F08050119088
:105390001548016841F4804101600068022400F46E
:1053A0008040119001200090000401908001CDE91F
:1053B000064006200890A820CDE9090404200B909F
:1053C0006846FEF731FA0CA90F2081E831004FF44E
:1053D000A0500F90E002109005210CA8FEF738F9BC
:1053E00013B030BD403802400070004010480168E2
:1053F00041F4700101600F48016841F00101016052
:105400000C4A00210832116002680B4B1A400260FE
:10541000031D0A4A1A60026822F4802202600548CD
:105420000C3001600249580680390860704700005E
:1054300088ED00E000380240FFFFF6FE1030002447
:105440000148FEF7A0BD000004080020F0B5026886
:10545000254C264D264E274F274B4FF0804CA0421F
:1054600009D0604507D0A84205D0B04203D0B84269
:1054700001D0984204D122F0700E4A6842EA0E022E
:10548000A0421BD0604519D0A84217D0B04215D019
:10549000B84213D0984211D0184DA8420ED0184DE2
:1054A000A8420BD0174DA84208D0174DA84205D0EE
:1054B000164DA84202D0164DA84203D122F44075E1
:1054C000CA682A434D6922F080022A4302608A6832
:1054D000C2620A688262A04201D0984201D1096981
:1054E000016301214161F0BD000001400004004062
:1054F00000080040000C0040000401400040014052
:10550000004401400048014000180040001C0040D9
:1055100000200040F0B5026A22F001020262036A34
:1055200042688469124E24F073050C682C4323F002
:1055300002058B682B430D4DA84201D0B04205D126
:1055400023F00807CB683B4323F00403A84201D0B3
:10555000B04205D14D6922F4407215438A692A434D
:1055600042608461496841630362F0BD000001400C
:1055700000040140F0B5026A22F010020262026AE1
:10558000436884690D6824F4E64444EA05248D6880
:1055900022F0200242EA05120F4D104EA84201D01F
:1055A000B04206D1CF6822F0800242EA071222F010
:1055B0004002A84201D0B04207D14D6923F44063B4
:1055C00043EA85038D6943EA850343608461496842
:1055D00081630262F0BD0000000001400004014050
:1055E000F0B5026A22F480720262026A4368C469FA
:1055F00022F4007224F073050C68124E2C438D685F
:1056000042EA05220E4DA84201D0B04206D1CF6831
:1056100022F4006242EA072222F48062A84201D00A
:10562000B04207D14D6923F4405343EA05138D6915
:1056300043EA05134360C4614968C1630262F0BD77
:10564000000001400004014030B5026A22F480529B
:105650000262046A4268C3690D6823F4E64343EAC0
:1056600005238D6824F4005444EA0534084DA8420B
:1056700002D0084DA84204D14D6922F4804242EA8A
:1056800085124260C36149680164046230BD000054
:1056900000000140000401402DE9F0411A4E05468A
:1056A0009846B0781746FF2801D10020B070C0B2EC
:1056B000154C401CB070A52220342A70218021781E
:1056C00069706178A970E87005212846FBF74EFAE9
:1056D0002780207868716078A871A4F8008020780D
:1056E000E87160782872B6F84400208021786972E9
:1056F0006178A97240F4807020802078E872607828
:105700002873BDE8F08100007400002010B5806BA4
:105710000021C185C184FEF79BFD10BD70B5846B6F
:105720002068406994F83910C0F3C0100025212981
:1057300004D118B1E584204600F046F8206840699D
:1057400094F83A10C0F38010222904D118B1E585ED
:10575000204600F02BF8E06B40F01000E06320469C
:10576000FEF776FD70BD10B50146806B09680968CB
:10577000C90513D40021C1850168CA6822F480726A
:10578000CA6001684A6922F001024A6101684A69F7
:1057900022F040024A61202180F83A10FEF726FFED
:1057A00010BD10B5806BFEF757FF10BD0168CA68C9
:1057B00022F49072CA6001684A6922F001024A61CB
:1057C000202180F83A1070470168CA6822F0C002B0
:1057D000CA60202180F83910704710B590F83A104F
:1057E000222901D0022010BD8168B1F5805F11D05F
:1057F0000169002901681FD0496801F07F03816AAF
:105800004A1C82620B70C18D491E0904090CC185B6
:1058100018D02BE00269816A002A0268526805D01C
:10582000D2B20A80816A491C8162ECE7C2F30802A5
:105830000A80816A891CF7E74A68816A4B1C836287
:105840000A70E0E70168CA6822F02002CA600168B5
:10585000CA6822F48072CA6001684A6922F00102B3
:105860004A61202180F83A10FEF7C0FE002010BDEA
:105870002DE9F041044600680169E26821F44051D5
:10588000114301612169A068E2690843616911431C
:1058900008432168CA6849F20C639A430243CA600C
:1058A00020684169A26921F4407111434161E069B6
:1058B000192764253226B0F5004F354A354920684E
:1058C0004FF0000806D0884201D0904236D1FDF753
:1058D00069FF35E0884201D0904202D1FDF762FFB6
:1058E00001E0FDF74FFF61684A18A0FB070148EB94
:1058F0000803FAF7C7FC0146B0FBF5F00201B1FB63
:10590000F5F06FF01803584301EB800006EBC00080
:10591000B0FBF5F000F0F80002EB4002B1FBF5F04F
:10592000584301EB800006EBC000B0FBF5F000F03F
:105930000700216810448860BDE8F081FDF722FF70
:1059400061688B0F8A00A0FB0701FAF79BFC0146F8
:10595000B0FBF5F06FF01802504301EB800006EB4E
:105960000010B0FBF5F000F0F002B1FBF5F002EB37
:105970000012B1FBF5F06FF01803584301EB800003
:1059800006EB0010B0FBF5F000F00F00D1E70000CF
:10599000001401400010014090F83910212901D075
:1059A000022070478168B1F5805F016A0BD04A1C04
:1059B0000262026809785160C18C491E0904090C11
:1059C000C1840ED017E009880268C1F30801516054
:1059D00001690029016A02D0491C0162ECE7891CB7
:1059E000FBE70168CA6822F08002CA600068C168EB
:1059F00041F04001C1600020704700000148FEF7FF
:105A000031BC0000440800200148FEF72BBC000018
:105A10008408002010B504460122FEF7BDFD206871
:105A2000416941F00101416110BDFEE730B50C460E
:105A3000050014D0022C12D90A48A11E028828465B
:105A4000FCF794FE2919C2B211F8023C9A4206D121
:105A500011F8011CB1EB102F01D1012030BD002045
:105A600030BD00007000002030B50C4605000CD0A1
:105A7000022C0AD9FF22611EFCF78EFE291911F8AB
:105A8000011C814201D1012030BD002030BD000049
:105A90000FB4054B10B503A9044A029800F0EAF8C8
:105AA00010BC5DF814FB00003D660008E00100201A
:105AB0000907090E002804DB00F1E02080F800143B
:105AC000704700F00F0000F1E02080F8141D7047CF
:105AD00002E008C8121F08C1002AFAD170477047B7
